{
  "contractName": "Faucet",
  "abi": [
    {
      "inputs": [],
      "name": "numOfFunders",
      "outputs": [
        {
          "internalType": "uint256",
          "name": "",
          "type": "uint256"
        }
      ],
      "stateMutability": "view",
      "type": "function",
      "constant": true
    },
    {
      "inputs": [],
      "name": "owner",
      "outputs": [
        {
          "internalType": "address",
          "name": "",
          "type": "address"
        }
      ],
      "stateMutability": "view",
      "type": "function",
      "constant": true
    },
    {
      "inputs": [],
      "name": "test5",
      "outputs": [
        {
          "internalType": "uint256",
          "name": "",
          "type": "uint256"
        }
      ],
      "stateMutability": "pure",
      "type": "function",
      "constant": true
    },
    {
      "inputs": [],
      "name": "testNum",
      "outputs": [
        {
          "internalType": "uint256",
          "name": "",
          "type": "uint256"
        }
      ],
      "stateMutability": "view",
      "type": "function",
      "constant": true
    },
    {
      "stateMutability": "payable",
      "type": "receive",
      "payable": true
    },
    {
      "inputs": [],
      "name": "emitLog",
      "outputs": [
        {
          "internalType": "bytes32",
          "name": "",
          "type": "bytes32"
        }
      ],
      "stateMutability": "pure",
      "type": "function",
      "constant": true
    },
    {
      "inputs": [
        {
          "internalType": "address",
          "name": "newOwner",
          "type": "address"
        }
      ],
      "name": "transferOwnership",
      "outputs": [],
      "stateMutability": "nonpayable",
      "type": "function"
    },
    {
      "inputs": [],
      "name": "addFunds",
      "outputs": [],
      "stateMutability": "payable",
      "type": "function",
      "payable": true
    },
    {
      "inputs": [],
      "name": "test1",
      "outputs": [],
      "stateMutability": "nonpayable",
      "type": "function"
    },
    {
      "inputs": [],
      "name": "test2",
      "outputs": [],
      "stateMutability": "nonpayable",
      "type": "function"
    },
    {
      "inputs": [
        {
          "internalType": "uint256",
          "name": "withdrawAmount",
          "type": "uint256"
        }
      ],
      "name": "withdraw",
      "outputs": [],
      "stateMutability": "nonpayable",
      "type": "function"
    },
    {
      "inputs": [],
      "name": "getAllFunders",
      "outputs": [
        {
          "internalType": "address[]",
          "name": "",
          "type": "address[]"
        }
      ],
      "stateMutability": "view",
      "type": "function",
      "constant": true
    },
    {
      "inputs": [
        {
          "internalType": "uint8",
          "name": "index",
          "type": "uint8"
        }
      ],
      "name": "getFunderAtIndex",
      "outputs": [
        {
          "internalType": "address",
          "name": "",
          "type": "address"
        }
      ],
      "stateMutability": "view",
      "type": "function",
      "constant": true
    }
  ],
  "bytecode": "0x608060405234801561001057600080fd5b50336000806101000a81548173ffffffffffffffffffffffffffffffffffffffff021916908373ffffffffffffffffffffffffffffffffffffffff1602179055506103e8600181905550610cbd806100696000396000f3fe6080604052600436106100ab5760003560e01c80638da5cb5b116100645780638da5cb5b146101a1578063a26759cb146101cc578063ae28f1ed146101d6578063af7f2c9b14610201578063f2fde38b1461022c578063f42c13bf14610255576100b2565b80630a93cf33146100b75780631ad7be82146100f45780632e1a7d4d1461011f57806366e41cb7146101485780636b59084d1461015f5780636fbbb55d14610176576100b2565b366100b257005b600080fd5b3480156100c357600080fd5b506100de60048036038101906100d991906108bb565b610280565b6040516100eb91906109dc565b60405180910390f35b34801561010057600080fd5b506101096102c0565b6040516101169190610a74565b60405180910390f35b34801561012b57600080fd5b5061014660048036038101906101419190610892565b6102d2565b005b34801561015457600080fd5b5061015d610369565b005b34801561016b57600080fd5b506101746103f9565b005b34801561018257600080fd5b5061018b610489565b60405161019891906109f7565b60405180910390f35b3480156101ad57600080fd5b506101b66105cf565b6040516101c391906109dc565b60405180910390f35b6101d46105f3565b005b3480156101e257600080fd5b506101eb61071c565b6040516101f89190610a74565b60405180910390f35b34801561020d57600080fd5b50610216610722565b6040516102239190610a74565b60405180910390f35b34801561023857600080fd5b50610253600480360381019061024e9190610869565b610728565b005b34801561026157600080fd5b5061026a6107f9565b6040516102779190610a19565b60405180910390f35b6000600460008360ff16815260200190815260200160002060009054906101000a900473ffffffffffffffffffffffffffffffffffffffff169050919050565b60006102ca610821565b50600a905090565b8067016345785d8a000081111561031e576040517f08c379a000000000000000000000000000000000000000000000000000000000815260040161031590610a34565b60405180910390fd5b3373ffffffffffffffffffffffffffffffffffffffff166108fc839081150290604051600060405180830381858888f19350505050158015610364573d6000803e3d6000fd5b505050565b60008054906101000a900473ffffffffffffffffffffffffffffffffffffffff1673ffffffffffffffffffffffffffffffffffffffff163373ffffffffffffffffffffffffffffffffffffffff16146103f7576040517f08c379a00000000000000000000000000000000000000000000000000000000081526004016103ee90610a54565b60405180910390fd5b565b60008054906101000a900473ffffffffffffffffffffffffffffffffffffffff1673ffffffffffffffffffffffffffffffffffffffff163373ffffffffffffffffffffffffffffffffffffffff1614610487576040517f08c379a000000000000000000000000000000000000000000000000000000000815260040161047e90610a54565b60405180910390fd5b565b6060600060025467ffffffffffffffff8111156104cf577f4e487b7100000000000000000000000000000000000000000000000000000000600052604160045260246000fd5b6040519080825280602002602001820160405280156104fd5781602001602082028036833780820191505090505b50905060005b6002548110156105c7576004600082815260200190815260200160002060009054906101000a900473ffffffffffffffffffffffffffffffffffffffff1682828151811061057a577f4e487b7100000000000000000000000000000000000000000000000000000000600052603260045260246000fd5b602002602001019073ffffffffffffffffffffffffffffffffffffffff16908173ffffffffffffffffffffffffffffffffffffffff168152505080806105bf90610b2c565b915050610503565b508091505090565b60008054906101000a900473ffffffffffffffffffffffffffffffffffffffff1681565b6000339050610600610821565b50600360008273ffffffffffffffffffffffffffffffffffffffff1673ffffffffffffffffffffffffffffffffffffffff16815260200190815260200160002060009054906101000a900460ff166107195760006002600081548092919061066790610b2c565b9190505590506001600360008473ffffffffffffffffffffffffffffffffffffffff1673ffffffffffffffffffffffffffffffffffffffff16815260200190815260200160002060006101000a81548160ff021916908315150217905550816004600083815260200190815260200160002060006101000a81548173ffffffffffffffffffffffffffffffffffffffff021916908373ffffffffffffffffffffffffffffffffffffffff160217905550505b50565b60015481565b60025481565b60008054906101000a900473ffffffffffffffffffffffffffffffffffffffff1673ffffffffffffffffffffffffffffffffffffffff163373ffffffffffffffffffffffffffffffffffffffff16146107b6576040517f08c379a00000000000000000000000000000000000000000000000000000000081526004016107ad90610a54565b60405180910390fd5b806000806101000a81548173ffffffffffffffffffffffffffffffffffffffff021916908373ffffffffffffffffffffffffffffffffffffffff16021790555050565b60007f68656c6c6f20576f726c64000000000000000000000000000000000000000000905090565b60006064905090565b60008135905061083981610c42565b92915050565b60008135905061084e81610c59565b92915050565b60008135905061086381610c70565b92915050565b60006020828403121561087b57600080fd5b60006108898482850161082a565b91505092915050565b6000602082840312156108a457600080fd5b60006108b28482850161083f565b91505092915050565b6000602082840312156108cd57600080fd5b60006108db84828501610854565b91505092915050565b60006108f083836108fc565b60208301905092915050565b61090581610ad9565b82525050565b61091481610ad9565b82525050565b600061092582610a9f565b61092f8185610ab7565b935061093a83610a8f565b8060005b8381101561096b57815161095288826108e4565b975061095d83610aaa565b92505060018101905061093e565b5085935050505092915050565b61098181610aeb565b82525050565b6000610994602383610ac8565b915061099f82610ba4565b604082019050919050565b60006109b7602183610ac8565b91506109c282610bf3565b604082019050919050565b6109d681610b15565b82525050565b60006020820190506109f1600083018461090b565b92915050565b60006020820190508181036000830152610a11818461091a565b905092915050565b6000602082019050610a2e6000830184610978565b92915050565b60006020820190508181036000830152610a4d81610987565b9050919050565b60006020820190508181036000830152610a6d816109aa565b9050919050565b6000602082019050610a8960008301846109cd565b92915050565b6000819050602082019050919050565b600081519050919050565b6000602082019050919050565b600082825260208201905092915050565b600082825260208201905092915050565b6000610ae482610af5565b9050919050565b6000819050919050565b600073ffffffffffffffffffffffffffffffffffffffff82169050919050565b6000819050919050565b600060ff82169050919050565b6000610b3782610b15565b91507fffffffffffffffffffffffffffffffffffffffffffffffffffffffffffffffff821415610b6a57610b69610b75565b5b600182019050919050565b7f4e487b7100000000000000000000000000000000000000000000000000000000600052601160045260246000fd5b7f43616e6e6f74207769746864726177206d6f7265207468616e20302e3120657460008201527f6865720000000000000000000000000000000000000000000000000000000000602082015250565b7f4f6e6c79204f776e65722063616e2063616c6c20746869732066756e6374696f60008201527f6e00000000000000000000000000000000000000000000000000000000000000602082015250565b610c4b81610ad9565b8114610c5657600080fd5b50565b610c6281610b15565b8114610c6d57600080fd5b50565b610c7981610b1f565b8114610c8457600080fd5b5056fea264697066735822122054e5baef1c9e3619f8a8c8248a82a4c34cd6abaf5e5c3e949cf78b21821261a064736f6c63430008040033",
  "immutableReferences": {},
  "source": "// SPDX-License-Identifier: MIT\r\npragma solidity >=0.4.22 <0.9.0;\r\n\r\nimport \"./Owned.sol\";\r\nimport \"./Logger.sol\";\r\nimport \"./IFaucet.sol\";\r\n\r\n// Inheritance\r\ncontract Faucet is Owned, Logger, IFaucet {\r\n    uint public numOfFunders;\r\n\r\n    mapping(address => bool) private funders;\r\n    mapping(uint => address) private lutFunders;\r\n\r\n    modifier limitWithdraw(uint withdrawAmount) {\r\n        require(\r\n            withdrawAmount <= 100000000000000000,\r\n            \"Cannot withdraw more than 0.1 ether\"\r\n        );\r\n        _; // rest of the code\r\n    }\r\n\r\n    // private -> can be accessible only within smart contract\r\n    // internal -> can be accessible within smart contract and also derived smart contract\r\n\r\n    // this is a special function\r\n    // It's caled when you make a transaction,\r\n    // that dosen't specify function name to call\r\n\r\n    // External functions are part of the contract interface\r\n    // which means they can be called via contracts and other transactions.\r\n\r\n    receive() external payable {}\r\n\r\n    function emitLog() public pure override returns (bytes32) {\r\n        return \"hello World\";\r\n    }\r\n\r\n    function transferOwnership(address newOwner) external onlyOwner {\r\n        owner = newOwner;\r\n    }\r\n\r\n    function addFunds() external payable override {\r\n        //    uint index = numOfFunders++;\r\n        // funders[index] = msg.sender;\r\n        address funder = msg.sender;\r\n        test3();\r\n\r\n        if (!funders[funder]) {\r\n            uint index = numOfFunders++;\r\n            funders[funder] = true;\r\n            lutFunders[index] = funder;\r\n        }\r\n    }\r\n\r\n    function test1() external onlyOwner {\r\n        // some managing stuff that only admin should have access to\r\n    }\r\n\r\n    function test2() external onlyOwner {\r\n        // some managing stuff that only admin should have access to\r\n    }\r\n\r\n    function withdraw(\r\n        uint withdrawAmount\r\n    ) external override limitWithdraw(withdrawAmount) {\r\n        // require(\r\n        //     withdrawAmount <= 100000000000000000,\r\n        //     \"Cannot withdraw more than 0.1 ether\"\r\n        // );\r\n\r\n        payable(msg.sender).transfer(withdrawAmount);\r\n        // if (withdrawAmount < 1000000000000000000) {\r\n\r\n        // }\r\n    }\r\n\r\n    function getAllFunders() external view returns (address[] memory) {\r\n        address[] memory _funders = new address[](numOfFunders);\r\n\r\n        for (uint i = 0; i < numOfFunders; i++) {\r\n            _funders[i] = lutFunders[i];\r\n        }\r\n\r\n        return _funders;\r\n    }\r\n\r\n    function getFunderAtIndex(uint8 index) external view returns (address) {\r\n        // address[] memory _funders = getAllFunders();\r\n        return lutFunders[index];\r\n    }\r\n\r\n    //  const instance = await Faucet.deployed();\r\n\r\n    // instance.addFunds({from: accounts[0], value: \"2000000000000000000\"})\r\n    // instance.addFunds({from: accounts[1], value: \"2000000000000000000\"})\r\n\r\n    // instance.withdraw(\"500000000000000000\", {from: accounts[1]})\r\n\r\n    // instance.getFunderAtIndex(0)\r\n    // instance.getAllFunders()\r\n\r\n    // pure, view - read-only call, no gas  free\r\n    // view - it indicates that the function will not alter the storage state in any way\r\n    // pure - even more strict indicating that it won't even read the storage state\r\n    // external - dosen't allow other functions to be accessible inside smart contract.\r\n    // internal - allow's other functions to be accessible inside smart contract.\r\n    // public -  It does allows other functions to be accessible inside smart contract\r\n\r\n    // Transactions (can generate state changes) and require gas fee\r\n    // read-only call, no gas  free\r\n\r\n    // to talk to the node on the network you can make JSOn-RPC http calls\r\n}\r\n\r\n// Block info\r\n// Nonce - a hash that when combined with the mixHash proofs that\r\n// the block has gone through Proof of Work(POW)\r\n// 8 bytes => 64 bits (E.g  nonce: '0x0000000000000000',  mixHash: '0xfd24934dc23210250dc692123769aea483236dbe079af21bfa651854c91cc5df')\r\n\r\n// const instance = await Faucet.deployed()\r\n// instance.addFunds({value: \"3000000000000000000\", from: accounts[3]})\r\n",
  "sourcePath": "E:\\Projects\\Ethereum and Solidity-Filip Jenega\\blockchain\\faucet\\contracts\\FaucetContract.sol",
  "compiler": {
    "name": "solc",
    "version": "0.8.4+commit.c7e474f2.Emscripten.clang"
  },
  "schemaVersion": "3.4.3",
  "updatedAt": "2023-06-03T17:45:04.131Z",
  "networkType": "ethereum",
  "devdoc": {
    "kind": "dev",
    "methods": {},
    "version": 1
  },
  "userdoc": {
    "kind": "user",
    "methods": {},
    "version": 1
  }
}