{
  "contractName": "Storage",
  "abi": [
    {
      "inputs": [],
      "stateMutability": "nonpayable",
      "type": "constructor"
    },
    {
      "inputs": [],
      "name": "a",
      "outputs": [
        {
          "internalType": "uint8",
          "name": "",
          "type": "uint8"
        }
      ],
      "stateMutability": "view",
      "type": "function",
      "constant": true
    },
    {
      "inputs": [
        {
          "internalType": "uint256",
          "name": "",
          "type": "uint256"
        }
      ],
      "name": "aa",
      "outputs": [
        {
          "internalType": "uint256",
          "name": "",
          "type": "uint256"
        }
      ],
      "stateMutability": "view",
      "type": "function",
      "constant": true
    },
    {
      "inputs": [],
      "name": "b",
      "outputs": [
        {
          "internalType": "uint16",
          "name": "",
          "type": "uint16"
        }
      ],
      "stateMutability": "view",
      "type": "function",
      "constant": true
    },
    {
      "inputs": [
        {
          "internalType": "address",
          "name": "",
          "type": "address"
        }
      ],
      "name": "bb",
      "outputs": [
        {
          "internalType": "uint256",
          "name": "",
          "type": "uint256"
        }
      ],
      "stateMutability": "view",
      "type": "function",
      "constant": true
    },
    {
      "inputs": [],
      "name": "c",
      "outputs": [
        {
          "internalType": "address",
          "name": "",
          "type": "address"
        }
      ],
      "stateMutability": "view",
      "type": "function",
      "constant": true
    },
    {
      "inputs": [
        {
          "internalType": "uint256",
          "name": "",
          "type": "uint256"
        }
      ],
      "name": "cc",
      "outputs": [
        {
          "internalType": "uint256",
          "name": "",
          "type": "uint256"
        }
      ],
      "stateMutability": "view",
      "type": "function",
      "constant": true
    },
    {
      "inputs": [],
      "name": "e",
      "outputs": [
        {
          "internalType": "uint64",
          "name": "",
          "type": "uint64"
        }
      ],
      "stateMutability": "view",
      "type": "function",
      "constant": true
    },
    {
      "inputs": [],
      "name": "f",
      "outputs": [
        {
          "internalType": "uint256",
          "name": "",
          "type": "uint256"
        }
      ],
      "stateMutability": "view",
      "type": "function",
      "constant": true
    },
    {
      "inputs": [],
      "name": "g",
      "outputs": [
        {
          "internalType": "uint8",
          "name": "",
          "type": "uint8"
        }
      ],
      "stateMutability": "view",
      "type": "function",
      "constant": true
    },
    {
      "inputs": [],
      "name": "h",
      "outputs": [
        {
          "internalType": "uint256",
          "name": "",
          "type": "uint256"
        }
      ],
      "stateMutability": "view",
      "type": "function",
      "constant": true
    }
  ],
  "bytecode": "0x60806040526007600360006101000a81548160ff021916908360ff160217905550600a600360016101000a81548161ffff021916908361ffff1602179055507384034473ef698c54e7bb5ec836e8c2a5698b390c6003806101000a81548173ffffffffffffffffffffffffffffffffffffffff021916908373ffffffffffffffffffffffffffffffffffffffff1602179055506001600360176101000a81548160ff021916908315150217905550600f600360186101000a81548167ffffffffffffffff021916908367ffffffffffffffff16021790555060c86004556028600560006101000a81548160ff021916908360ff16021790555061031560065534801561010a57600080fd5b506002600190806001815401808255809150506001900390600052602060002001600090919091909150556002600a908060018154018082558091505060019003906000526020600020016000909190919091505560026064908060018154018082558091505060019003906000526020600020016000909190919091505560046000806002815260200190815260200160002081905550600a60008060038152602001908152602001600020819055506064600160007384034473ef698c54e7bb5ec836e8c2a5698b390c73ffffffffffffffffffffffffffffffffffffffff1673ffffffffffffffffffffffffffffffffffffffff168152602001908152602001600020819055506104fa806102236000396000f3fe608060405234801561001057600080fd5b506004361061009e5760003560e01c8063c3da42b811610066578063c3da42b81461014b578063e1d9bbbd14610169578063e2179b8e14610199578063eb366c13146101b7578063ffae15ba146101e75761009e565b80630dbe671f146100a357806326121ff0146100c15780634df7e3d0146100df5780637323febe146100fd578063b8c9d3651461012d575b600080fd5b6100ab610205565b6040516100b89190610410565b60405180910390f35b6100c9610218565b6040516100d691906103da565b60405180910390f35b6100e761021e565b6040516100f491906103bf565b60405180910390f35b61011760048036038101906101129190610330565b610232565b60405161012491906103da565b60405180910390f35b61013561024a565b60405161014291906103da565b60405180910390f35b610153610250565b60405161016091906103a4565b60405180910390f35b610183600480360381019061017e9190610307565b610274565b60405161019091906103da565b60405180910390f35b6101a161028c565b6040516101ae9190610410565b60405180910390f35b6101d160048036038101906101cc9190610330565b61029f565b6040516101de91906103da565b60405180910390f35b6101ef6102c3565b6040516101fc91906103f5565b60405180910390f35b600360009054906101000a900460ff1681565b60045481565b600360019054906101000a900461ffff1681565b60006020528060005260406000206000915090505481565b60065481565b60038054906101000a900473ffffffffffffffffffffffffffffffffffffffff1681565b60016020528060005260406000206000915090505481565b600560009054906101000a900460ff1681565b600281815481106102af57600080fd5b906000526020600020016000915090505481565b600360189054906101000a900467ffffffffffffffff1681565b6000813590506102ec81610496565b92915050565b600081359050610301816104ad565b92915050565b60006020828403121561031957600080fd5b6000610327848285016102dd565b91505092915050565b60006020828403121561034257600080fd5b6000610350848285016102f2565b91505092915050565b6103628161042b565b82525050565b6103718161043d565b82525050565b6103808161046b565b82525050565b61038f81610475565b82525050565b61039e81610489565b82525050565b60006020820190506103b96000830184610359565b92915050565b60006020820190506103d46000830184610368565b92915050565b60006020820190506103ef6000830184610377565b92915050565b600060208201905061040a6000830184610386565b92915050565b60006020820190506104256000830184610395565b92915050565b60006104368261044b565b9050919050565b600061ffff82169050919050565b600073ffffffffffffffffffffffffffffffffffffffff82169050919050565b6000819050919050565b600067ffffffffffffffff82169050919050565b600060ff82169050919050565b61049f8161042b565b81146104aa57600080fd5b50565b6104b68161046b565b81146104c157600080fd5b5056fea264697066735822122038c4df2cb4a021bf59150d904fcbe1d48cd92e04922441d3bfa4c763eb39e8a064736f6c63430008040033",
  "immutableReferences": {},
  "source": "// SPDX-License-Identifier: MIT\r\npragma solidity >=0.4.22 <0.9.0;\r\n\r\ncontract Storage {\r\n    // keccak256(key . slot)\r\n    mapping(uint => uint) public aa; // slot 0\r\n    mapping(address => uint) public bb; // slot 1\r\n\r\n    // keccak256(slot) + index of the item\r\n    uint[] public cc; // slot 2\r\n    // web3.eth.getStorageAt(\"0xba3462c2bB0120D809FAD35342455529b8a79780\",2)\r\n    //              Address of Storage => 0xba3462c2bB0120D809FAD35342455529b8a79780 at slot => 2 returns length of array.\r\n\r\n    uint8 public a = 7; // 1 byte = 8 bits\r\n    uint16 public b = 10; // 2 bytes\r\n    address public c = 0x84034473eF698c54E7Bb5eC836e8c2a5698b390c; // 20 bytes\r\n    bool d = true; // 1 byte\r\n    uint64 public e = 15; // 8 bytes\r\n    // 32 bytes, all values will be stored in slot 3\r\n    //0x000000000000000f0184034473ef698c54e7bb5ec836e8c2a5698b390c000a07 -> slot 3\r\n    // 0x00000000000000         0f      01          84034473ef698c54e7bb5ec836e8c2a5698b390c        000a        07\r\n    //                        e = 15   d = true     c = 0x84034473eF698c54E7Bb5eC836e8c2a5698b390c  b = 10     a = 7;\r\n    // values are stored in hexadecimal\r\n\r\n    uint256 public f = 200; // 32 bytes -> slot 4\r\n    // 0x00000000000000000000000000000000000000000000000000000000000000 c8 -> slot 4\r\n    // values are in hexadecimal                                       f = 200\r\n\r\n    uint8 public g = 40; // 1 byte -> slot 5\r\n    // 0x00000000000000000000000000000000000000000000000000000000000000 28 -> slot 5\r\n    // values are in hexadecimal                                       g = 40\r\n\r\n    uint256 public h = 789; // 32 bytes -> slot 6\r\n\r\n    // 0x0000000000000000000000000000000000000000000000000000000000000 315-> slot 6\r\n    // values are in hexadecimal                                      h = 789\r\n\r\n    // Note:- above values are stored in seperate slot's because by default one\r\n    // slot can store only 32 bytes of value at a time.\r\n\r\n    // In ganache we will see values as:-\r\n    // { //8 items\r\n    // a:uint7\r\n    // b:uint10\r\n    // c:address\"0x84034473eF698c54E7...\"\r\n    // d:booltrue\r\n    // e:uint15\r\n    // f:uint128 -> hexadecimal value of -> uint256 public f = 200;\r\n    // g:uint28 -> hexadecimal value of ->  uint8 public g = 40;\r\n    // h:uint315 -> hexadecimal value of -> uint256 public h = 789\r\n    //}\r\n\r\n    constructor() {\r\n        cc.push(1); // 0\r\n        cc.push(10); // 1\r\n        cc.push(100); // 2\r\n\r\n        aa[2] = 4;\r\n        aa[3] = 10;\r\n\r\n        bb[0x84034473eF698c54E7Bb5eC836e8c2a5698b390c] = 100;\r\n    }\r\n}\r\n\r\n// 0x0000000000000000000000000000000000000000000000000000000000000000 -> 32 bytes or 64 characters\r\n// 0x00000000000000000000000000000000000000000000000000000000000000020000000000000000000000000000000000000000000000000000000000000000 -> 64 bytes or 128 characters\r\n// ranges from 2^256 to 2^256-1\r\n\r\n// uint8 -> 2^256-1 max 255 characters\r\n\r\n// aa[2] = 4;\r\n// 0x00000000000000000000000000000000000000000000000000000000000000020000000000000000000000000000000000000000000000000000000000000000 -> slot 0\r\n// above code is hexadecimal and when converted to keccak256 it's value is -> 0xabbb5caa7dda850e60932de0934eb1f9d0f59695050f761dc64e443e5030a569\r\n// web3.eth.getStorageAt(\"0x34Abe236122eA9bdd3F162354FbEb157cb1fbB7c\", \"0xabbb5caa7dda850e60932de0934eb1f9d0f59695050f761dc64e443e5030a569\")\r\n\r\n//  aa[3] = 10;\r\n// 0x00000000000000000000000000000000000000000000000000000000000000030000000000000000000000000000000000000000000000000000000000000000 -> slot 0\r\n// above code is hexadecimal and when converted to keccak256 it's value is -> 101e368776582e57ab3d116ffe2517c0a585cd5b23174b01e275c2d8329c3d83\r\n//web3.eth.getStorageAt(\"0x34Abe236122eA9bdd3F162354FbEb157cb1fbB7c\", \"0x101e368776582e57ab3d116ffe2517c0a585cd5b23174b01e275c2d8329c3d83\")\r\n\r\n// bb[0x84034473eF698c54E7Bb5eC836e8c2a5698b390c] = 100;\r\n// 0x00000000000000000000000084034473eF698c54E7Bb5eC836e8c2a5698b390c0000000000000000000000000000000000000000000000000000000000000001 -> slot 1\r\n// above code is hexadecimal and when converted to keccak256 it's value is -> 9b0d5422d4731fae7cd3c32cec66d611ab58d287d72036361815bd635605ea5a\r\n// web3.eth.getStorageAt(\"0x34Abe236122eA9bdd3F162354FbEb157cb1fbB7c\", \"0x9b0d5422d4731fae7cd3c32cec66d611ab58d287d72036361815bd635605ea5a\")\r\n\r\n// keccak256(slot) + index of the item i.e. At slot 2 + 0 index => 0000000000000000000000000000000000000000000000000000000000000002 +0 = 0000000000000000000000000000000000000000000000000000000000000002\r\n// 0000000000000000000000000000000000000000000000000000000000000002 => element at cc[0] = 1;\r\n\r\n// keccak256(slot) + index of the item i.e. => At slot 2 + 1 index => 0000000000000000000000000000000000000000000000000000000000000002 => convert to decimal\r\n// i.e. 29102676481673041902632991033461445430619272659676223336789171408008386403022 +1 = 29102676481673041902632991033461445430619272659676223336789171408008386403023 now convert back to hex\r\n// i.e. now we get updated hex value as 405787FA12A823E0F2B7631CC41B3BA8828B3321CA811111FA75CD3AA3BB5ACF\r\n// 0000000000000000000000000000000000000000000000000000000000000002 -> slot 2\r\n// decimal value of above is 29102676481673041902632991033461445430619272659676223336789171408008386403022 + 1 = 29102676481673041902632991033461445430619272659676223336789171408008386403023\r\n// 29102676481673041902632991033461445430619272659676223336789171408008386403023 => to hex => 405787FA12A823E0F2B7631CC41B3BA8828B3321CA811111FA75CD3AA3BB5ACF\r\n// web3.eth.getStorageAt(\"0xba3462c2bB0120D809FAD35342455529b8a79780\",\"0x405787FA12A823E0F2B7631CC41B3BA8828B3321CA811111FA75CD3AA3BB5ACF\") => => element at cc[1] = 10;\r\n\r\n// keccak256(slot) + index of the item i.e. => At slot 2 + 2 index => 0000000000000000000000000000000000000000000000000000000000000002 => convert to decimal\r\n// i.e. 29102676481673041902632991033461445430619272659676223336789171408008386403022 +2 = 29102676481673041902632991033461445430619272659676223336789171408008386403024 now convert back to hex\r\n// i.e. now we get updated hex value as 405787FA12A823E0F2B7631CC41B3BA8828B3321CA811111FA75CD3AA3BB5AD0\r\n// 0000000000000000000000000000000000000000000000000000000000000002 -> slot 2\r\n// decimal value of above is 29102676481673041902632991033461445430619272659676223336789171408008386403022 + 1 = 29102676481673041902632991033461445430619272659676223336789171408008386403024\r\n// 29102676481673041902632991033461445430619272659676223336789171408008386403024 => to hex => 405787FA12A823E0F2B7631CC41B3BA8828B3321CA811111FA75CD3AA3BB5AD0\r\n// web3.eth.getStorageAt(\"0xba3462c2bB0120D809FAD35342455529b8a79780\",\"0x405787FA12A823E0F2B7631CC41B3BA8828B3321CA811111FA75CD3AA3BB5AD0\") => => element at cc[2] = 100;\r\n",
  "sourcePath": "E:\\Projects\\Ethereum and Solidity-Filip Jenega\\blockchain\\faucet\\contracts\\Storage.sol",
  "compiler": {
    "name": "solc",
    "version": "0.8.4+commit.c7e474f2.Emscripten.clang"
  },
  "schemaVersion": "3.4.3",
  "updatedAt": "2023-06-03T17:45:04.491Z",
  "networkType": "ethereum",
  "devdoc": {
    "kind": "dev",
    "methods": {},
    "version": 1
  },
  "userdoc": {
    "kind": "user",
    "methods": {},
    "version": 1
  }
}