{
  "contractName": "Test",
  "abi": [
    {
      "inputs": [
        {
          "internalType": "uint256",
          "name": "testNumb",
          "type": "uint256"
        }
      ],
      "name": "test",
      "outputs": [
        {
          "internalType": "uint256",
          "name": "data",
          "type": "uint256"
        }
      ],
      "stateMutability": "pure",
      "type": "function"
    },
    {
      "inputs": [],
      "name": "test2",
      "outputs": [
        {
          "internalType": "uint256",
          "name": "data",
          "type": "uint256"
        }
      ],
      "stateMutability": "pure",
      "type": "function"
    }
  ],
  "bytecode": "0x608060405234801561001057600080fd5b5061017c806100206000396000f3fe608060405234801561001057600080fd5b50600436106100365760003560e01c806329e99f071461003b57806366e41cb71461006b575b600080fd5b610055600480360381019061005091906100d2565b610089565b604051610062919061010a565b60405180910390f35b6100736100a2565b604051610080919061010a565b60405180910390f35b6000600460405150506020609001519050819050919050565b60006040516468656c6c6f6000820152600081015191505090565b6000813590506100cc8161012f565b92915050565b6000602082840312156100e457600080fd5b60006100f2848285016100bd565b91505092915050565b61010481610125565b82525050565b600060208201905061011f60008301846100fb565b92915050565b6000819050919050565b61013881610125565b811461014357600080fd5b5056fea2646970667358221220112198bb2aa6d46a446a922d09cd273354354a6f345cea78f9f3e0172416b4a164736f6c63430008040033",
  "immutableReferences": {},
  "source": "// SPDX-License-Identifier: MIT\r\npragma solidity >=0.4.22 <0.9.0;\r\n\r\ncontract Test {\r\n    function test(uint256 testNumb) external pure returns (uint data) {\r\n        // In order to write lower level code in solidity\r\n        assembly {\r\n            let _num := 4\r\n            let _fmp := mload(0x40) //memory load\r\n        }\r\n\r\n        // uint8[3] memory items = [1, 2, 3];\r\n\r\n        assembly {\r\n            data := mload(add(0x90, 0x20))\r\n        }\r\n        return testNumb;\r\n    }\r\n\r\n    function test2() external pure returns (uint data) {\r\n        assembly {\r\n            let fmp := mload(0x40)\r\n            // hello in hex -> 68656C6C6F\r\n            mstore(add(fmp, 0x00), 0x68656C6C6F)\r\n            data := mload(add(fmp, 0x00))\r\n        }\r\n    }\r\n}\r\n\r\n// After compiling the code what we are actually doing is\r\n// at memory(M) ->  M[0x40] = 0x80\r\n\r\n// 0x40 (32 bytes or 256 bits) [1 byte = 8 bits]\r\n// 0x0000000000000000000000000000000000000000000000000000000000000080\r\n\r\n// 0x0000000000000000000000000000000000000000000000000000000000000080 ????????????????????????????????\r\n// ?? mark indicates that after 0x80 these are coded values since we are having no values so by default it's '?'\r\n\r\n// 0x29e99f070000000000000000000000000000000000000000000000000000000000000003\r\n// 29e99f07-> test(uint256) 03-> value passing in function\r\n\r\n// in 0x80 we are storing chunks of 32 bytes i.e. 1, 2, 3\r\n",
  "sourcePath": "E:\\Projects\\Ethereum and Solidity-Filip Jenega\\blockchain\\faucet\\contracts\\Test.sol",
  "compiler": {
    "name": "solc",
    "version": "0.8.4+commit.c7e474f2.Emscripten.clang"
  },
  "schemaVersion": "3.4.3",
  "updatedAt": "2023-06-03T17:45:02.775Z",
  "devdoc": {
    "kind": "dev",
    "methods": {},
    "version": 1
  },
  "userdoc": {
    "kind": "user",
    "methods": {},
    "version": 1
  }
}